{
  "contractName": "Booking",
  "abi": [
    {
      "inputs": [
        {
          "internalType": "bytes32[10]",
          "name": "_cola",
          "type": "bytes32[10]"
        },
        {
          "internalType": "bytes32",
          "name": "_idCola",
          "type": "bytes32"
        },
        {
          "internalType": "bytes32[10]",
          "name": "_pepsi",
          "type": "bytes32[10]"
        },
        {
          "internalType": "bytes32",
          "name": "_idPepsi",
          "type": "bytes32"
        }
      ],
      "payable": false,
      "stateMutability": "nonpayable",
      "type": "constructor"
    },
    {
      "anonymous": false,
      "inputs": [
        {
          "indexed": false,
          "internalType": "bytes32",
          "name": "idCompany",
          "type": "bytes32"
        },
        {
          "indexed": false,
          "internalType": "bytes32",
          "name": "idRoom",
          "type": "bytes32"
        },
        {
          "indexed": false,
          "internalType": "bytes32",
          "name": "start",
          "type": "bytes32"
        },
        {
          "indexed": false,
          "internalType": "bytes32",
          "name": "end",
          "type": "bytes32"
        },
        {
          "indexed": false,
          "internalType": "uint256",
          "name": "idSlot",
          "type": "uint256"
        }
      ],
      "name": "Book",
      "type": "event"
    },
    {
      "anonymous": false,
      "inputs": [
        {
          "indexed": false,
          "internalType": "bytes32",
          "name": "idCompany",
          "type": "bytes32"
        },
        {
          "indexed": false,
          "internalType": "bytes32",
          "name": "idRoom",
          "type": "bytes32"
        },
        {
          "indexed": false,
          "internalType": "bytes32",
          "name": "start",
          "type": "bytes32"
        },
        {
          "indexed": false,
          "internalType": "bytes32",
          "name": "end",
          "type": "bytes32"
        },
        {
          "indexed": false,
          "internalType": "uint256",
          "name": "idSlot",
          "type": "uint256"
        }
      ],
      "name": "Cancel",
      "type": "event"
    },
    {
      "constant": true,
      "inputs": [
        {
          "internalType": "uint256",
          "name": "",
          "type": "uint256"
        }
      ],
      "name": "COLA",
      "outputs": [
        {
          "internalType": "bytes32",
          "name": "",
          "type": "bytes32"
        }
      ],
      "payable": false,
      "stateMutability": "view",
      "type": "function"
    },
    {
      "constant": true,
      "inputs": [
        {
          "internalType": "uint256",
          "name": "",
          "type": "uint256"
        }
      ],
      "name": "PEPSI",
      "outputs": [
        {
          "internalType": "bytes32",
          "name": "",
          "type": "bytes32"
        }
      ],
      "payable": false,
      "stateMutability": "view",
      "type": "function"
    },
    {
      "constant": false,
      "inputs": [
        {
          "internalType": "bytes32",
          "name": "idCompany",
          "type": "bytes32"
        },
        {
          "internalType": "bytes32",
          "name": "idRoom",
          "type": "bytes32"
        },
        {
          "internalType": "bytes32",
          "name": "start",
          "type": "bytes32"
        },
        {
          "internalType": "bytes32",
          "name": "end",
          "type": "bytes32"
        },
        {
          "internalType": "uint256",
          "name": "idSlot",
          "type": "uint256"
        }
      ],
      "name": "book",
      "outputs": [],
      "payable": false,
      "stateMutability": "nonpayable",
      "type": "function"
    },
    {
      "constant": false,
      "inputs": [
        {
          "internalType": "bytes32",
          "name": "idCompany",
          "type": "bytes32"
        },
        {
          "internalType": "bytes32",
          "name": "idRoom",
          "type": "bytes32"
        },
        {
          "internalType": "bytes32",
          "name": "start",
          "type": "bytes32"
        },
        {
          "internalType": "bytes32",
          "name": "end",
          "type": "bytes32"
        },
        {
          "internalType": "uint256",
          "name": "idSlot",
          "type": "uint256"
        }
      ],
      "name": "cancel",
      "outputs": [],
      "payable": false,
      "stateMutability": "nonpayable",
      "type": "function"
    }
  ],
  "bytecode": "0x608060405234801561001057600080fd5b5060405161071d38038061071d83398181016040526102c081101561003457600080fd5b810190809190826101400180519060200190929190919082610140018051906020019092919050505083600690600a61006e92919061012a565b5081601090600a61008092919061012a565b50610091838261009a60201b60201c565b5050505061018f565b60008090505b600a8110156101255760018060008581526020019081526020016000206000600684600a81106100cc57fe5b01548152602001908152602001600020819055506001600260008481526020019081526020016000206000601084600a811061010457fe5b015481526020019081526020016000208190555080806001019150506100a0565b505050565b82600a8101928215610159579160200282015b8281111561015857825182559160200191906001019061013d565b5b509050610166919061016a565b5090565b61018c91905b80821115610188576000816000905550600101610170565b5090565b90565b61057f8061019e6000396000f3fe608060405234801561001057600080fd5b506004361061004c5760003560e01c8063484303bf14610051578063ce28cd7b146100a7578063d9e1ff88146100fd578063e8efa1881461013f575b600080fd5b6100a5600480360360a081101561006757600080fd5b810190808035906020019092919080359060200190929190803590602001909291908035906020019092919080359060200190929190505050610181565b005b6100fb600480360360a08110156100bd57600080fd5b8101908080359060200190929190803590602001909291908035906020019092919080359060200190929190803590602001909291905050506102f5565b005b6101296004803603602081101561011357600080fd5b81019080803590602001909291905050506104ec565b6040518082815260200191505060405180910390f35b61016b6004803603602081101561015557600080fd5b8101908080359060200190929190505050610504565b6040518082815260200191505060405180910390f35b600180600087815260200190815260200160002060008681526020019081526020016000205414806101d75750600160026000878152602001908152602001600020600086815260200190815260200160002054145b6101e057600080fd5b6101e861051c565b6040518060800160405280838152602001600081526020016000801916815260200160008019168152509050600080868152602001908152602001600020819080600181540180825580915050906001820390600052602060002090600402016000909192909190915060008201518160000155602082015181600101556040820151816002015560608201518160030155505050600060056000848152602001908152602001600020819055507f6288fb65e989190778a870ccfeaf978473b0af4622a1f9617be627f3fb7565b08686868686604051808681526020018581526020018481526020018381526020018281526020019550505050505060405180910390a1505050505050565b80600060056000838152602001908152602001600020541461037f576040517f08c379a000000000000000000000000000000000000000000000000000000000815260040180806020018281038252600e8152602001807f4e6f7420417661696c61626c652e00000000000000000000000000000000000081525060200191505060405180910390fd5b600180600088815260200190815260200160002060008781526020019081526020016000205414806103d55750600160026000888152602001908152602001600020600087815260200190815260200160002054145b6103de57600080fd5b6103e661051c565b604051806080016040528084815260200160018152602001868152602001858152509050600160056000858152602001908152602001600020819055506000808781526020019081526020016000208190806001815401808255809150509060018203906000526020600020906004020160009091929091909150600082015181600001556020820151816001015560408201518160020155606082015181600301555050507f203f605932108834c0aaab3ad339ab3132cb98cd0d392f2767fbc1c65bfff3198787878787604051808681526020018581526020018481526020018381526020018281526020019550505050505060405180910390a150505050505050565b600681600a81106104f957fe5b016000915090505481565b601081600a811061051157fe5b016000915090505481565b604051806080016040528060008152602001600081526020016000801916815260200160008019168152509056fea265627a7a723158207b15d297dfa1623627ec287ae306ec71276d6df0f51c8fae908b65aac7cfecd364736f6c63430005100032",
  "source": "pragma solidity >=0.4.24;\r\n\r\n\r\ncontract Booking {\r\n\r\n    struct Slot {\r\n        uint256 idSlot;\r\n        uint256 status; // if 0 means vacant if 1 means occupied\r\n        bytes32 start;\r\n        bytes32 end;\r\n    }\r\n\r\n    mapping(bytes32 => Slot[])  rooms;\r\n    mapping(bytes32 => mapping(bytes32 => uint)) colaExists;\r\n    mapping(bytes32 => mapping(bytes32 => uint)) pepsiExists;\r\n    mapping(bytes32 => Slot[])  ColaRooms; // string is the ID of the room\r\n    mapping(bytes32 => Slot[]) PepsiRooms;\r\n    mapping(uint256 => uint256) slotAvailibilities; // slotID is unique for both companies so here we keep track of status\r\n                                                    // because it is simpler than loopin on ColaRooms mapping to check\r\n                                                    //if it is available\r\n\r\n    bytes32 [10] public COLA;\r\n    bytes32 [10] public PEPSI;\r\n\r\n    bytes32 constant company_cola = \"COLA\";\r\n   \r\n\r\n    event Book(bytes32 idCompany, bytes32 idRoom, bytes32 start, bytes32 end, uint256 idSlot);\r\n    event Cancel(bytes32 idCompany, bytes32 idRoom, bytes32 start, bytes32 end, uint256 idSlot);\r\n\r\n    modifier onlyWhenAvailable(uint256 _idSlot)\r\n    {\r\n        require(\r\n            slotAvailibilities[_idSlot] == 0, // even if key does not exist we will have default value 0 (canceled/not yet booked)\r\n            \"Not Available.\"\r\n        );\r\n        _;\r\n    }\r\n\r\n    constructor( bytes32 [10] memory _cola, bytes32 _idCola,  bytes32 [10] memory _pepsi, bytes32 _idPepsi) public{\r\n        COLA = _cola;\r\n        PEPSI = _pepsi;\r\n        setUpColaPepsiRooms(_idCola, _idPepsi);\r\n\r\n    }\r\n\r\n    function setUpColaPepsiRooms(bytes32 _idCola, bytes32 _idPepsi) private {\r\n        for(uint i=0; i<COLA.length; i++){\r\n            colaExists[_idCola][COLA[i]] = 1;\r\n            pepsiExists[_idPepsi][PEPSI[i]] = 1;\r\n        }\r\n\r\n    }\r\n\r\n\r\n\r\n    function book(bytes32  idCompany, bytes32  idRoom, bytes32  start, bytes32  end, uint256 idSlot) external onlyWhenAvailable(idSlot){\r\n        //make a require to check if roomID exists\r\n        require(colaExists[idCompany][idRoom] ==1 || pepsiExists[idCompany][idRoom] ==1);\r\n        Slot memory slot = Slot(idSlot, 1, start, end);\r\n        slotAvailibilities[idSlot] = 1;\r\n        rooms[idRoom].push(slot);\r\n        emit Book(idCompany, idRoom, start, end, idSlot);\r\n    }\r\n\r\n    function cancel(bytes32  idCompany, bytes32  idRoom, bytes32  start, bytes32  end, uint256  idSlot) external{\r\n        require(colaExists[idCompany][idRoom] ==1 || pepsiExists[idCompany][idRoom] ==1);\r\n        Slot memory slot = Slot(idSlot, 0, \"\", \"\");\r\n        rooms[idRoom].push(slot);\r\n        slotAvailibilities[idSlot] = 0;\r\n        emit Cancel(idCompany, idRoom, start, end, idSlot);\r\n     }\r\n\r\n\r\n\r\n\r\n\r\n}",
  "sourcePath": "/home/ubuntu/sahar-booking/app/contracts/Booking.sol",
  "compiler": {
    "name": "solc",
    "version": "0.5.16+commit.9c3226ce.Emscripten.clang"
  },
  "schemaVersion": "3.3.3",
  "updatedAt": "2021-04-06T00:05:43.382Z",
  "networkType": "ethereum",
  "devdoc": {
    "methods": {}
  },
  "userdoc": {
    "methods": {}
  }
}