{
  "contractName": "Booking",
  "abi": [
    {
      "inputs": [
        {
          "internalType": "bytes32[10]",
          "name": "_cola",
          "type": "bytes32[10]"
        },
        {
          "internalType": "bytes32",
          "name": "_idCola",
          "type": "bytes32"
        },
        {
          "internalType": "bytes32[10]",
          "name": "_pepsi",
          "type": "bytes32[10]"
        },
        {
          "internalType": "bytes32",
          "name": "_idPepsi",
          "type": "bytes32"
        }
      ],
      "payable": false,
      "stateMutability": "nonpayable",
      "type": "constructor"
    },
    {
      "anonymous": false,
      "inputs": [
        {
          "indexed": false,
          "internalType": "bytes32",
          "name": "idCompany",
          "type": "bytes32"
        },
        {
          "indexed": false,
          "internalType": "bytes32",
          "name": "resourceId",
          "type": "bytes32"
        },
        {
          "indexed": false,
          "internalType": "bytes32",
          "name": "start",
          "type": "bytes32"
        },
        {
          "indexed": false,
          "internalType": "bytes32",
          "name": "end",
          "type": "bytes32"
        },
        {
          "indexed": false,
          "internalType": "bytes32",
          "name": "idSlot",
          "type": "bytes32"
        }
      ],
      "name": "Book",
      "type": "event"
    },
    {
      "anonymous": false,
      "inputs": [
        {
          "indexed": false,
          "internalType": "bytes32",
          "name": "idCompany",
          "type": "bytes32"
        },
        {
          "indexed": false,
          "internalType": "bytes32",
          "name": "resourceId",
          "type": "bytes32"
        },
        {
          "indexed": false,
          "internalType": "bytes32",
          "name": "start",
          "type": "bytes32"
        },
        {
          "indexed": false,
          "internalType": "bytes32",
          "name": "end",
          "type": "bytes32"
        },
        {
          "indexed": false,
          "internalType": "bytes32",
          "name": "idSlot",
          "type": "bytes32"
        }
      ],
      "name": "Cancel",
      "type": "event"
    },
    {
      "anonymous": false,
      "inputs": [
        {
          "indexed": false,
          "internalType": "uint256",
          "name": "value",
          "type": "uint256"
        }
      ],
      "name": "Done",
      "type": "event"
    },
    {
      "anonymous": false,
      "inputs": [
        {
          "indexed": false,
          "internalType": "bytes32",
          "name": "id",
          "type": "bytes32"
        },
        {
          "indexed": false,
          "internalType": "bool",
          "name": "value",
          "type": "bool"
        }
      ],
      "name": "SLOT",
      "type": "event"
    },
    {
      "constant": true,
      "inputs": [
        {
          "internalType": "uint256",
          "name": "",
          "type": "uint256"
        }
      ],
      "name": "COLA",
      "outputs": [
        {
          "internalType": "bytes32",
          "name": "",
          "type": "bytes32"
        }
      ],
      "payable": false,
      "stateMutability": "view",
      "type": "function"
    },
    {
      "constant": true,
      "inputs": [
        {
          "internalType": "uint256",
          "name": "",
          "type": "uint256"
        }
      ],
      "name": "PEPSI",
      "outputs": [
        {
          "internalType": "bytes32",
          "name": "",
          "type": "bytes32"
        }
      ],
      "payable": false,
      "stateMutability": "view",
      "type": "function"
    },
    {
      "constant": false,
      "inputs": [
        {
          "internalType": "bytes32",
          "name": "idCompany",
          "type": "bytes32"
        },
        {
          "internalType": "bytes32",
          "name": "resourceId",
          "type": "bytes32"
        },
        {
          "internalType": "bytes32",
          "name": "start",
          "type": "bytes32"
        },
        {
          "internalType": "bytes32",
          "name": "end",
          "type": "bytes32"
        },
        {
          "internalType": "bytes32",
          "name": "idSlot",
          "type": "bytes32"
        }
      ],
      "name": "book",
      "outputs": [],
      "payable": false,
      "stateMutability": "nonpayable",
      "type": "function"
    },
    {
      "constant": false,
      "inputs": [
        {
          "internalType": "bytes32",
          "name": "idCompany",
          "type": "bytes32"
        },
        {
          "internalType": "bytes32",
          "name": "resourceId",
          "type": "bytes32"
        },
        {
          "internalType": "bytes32",
          "name": "start",
          "type": "bytes32"
        },
        {
          "internalType": "bytes32",
          "name": "end",
          "type": "bytes32"
        },
        {
          "internalType": "bytes32",
          "name": "idSlot",
          "type": "bytes32"
        }
      ],
      "name": "cancel",
      "outputs": [],
      "payable": false,
      "stateMutability": "nonpayable",
      "type": "function"
    },
    {
      "constant": false,
      "inputs": [
        {
          "internalType": "bytes32",
          "name": "idCompany",
          "type": "bytes32"
        },
        {
          "internalType": "bytes32",
          "name": "idSlot",
          "type": "bytes32"
        }
      ],
      "name": "test",
      "outputs": [],
      "payable": false,
      "stateMutability": "nonpayable",
      "type": "function"
    }
  ],
  "bytecode": "0x608060405234801561001057600080fd5b506040516108a03803806108a083398181016040526102c081101561003457600080fd5b810190809190826101400180519060200190929190919082610140018051906020019092919050505083600890600a61006e92919061012a565b5081601290600a61008092919061012a565b50610091838261009a60201b60201c565b5050505061018f565b60008090505b600a8110156101255760018060008581526020019081526020016000206000600884600a81106100cc57fe5b01548152602001908152602001600020819055506001600260008481526020019081526020016000206000601284600a811061010457fe5b015481526020019081526020016000208190555080806001019150506100a0565b505050565b82600a8101928215610159579160200282015b8281111561015857825182559160200191906001019061013d565b5b509050610166919061016a565b5090565b61018c91905b80821115610188576000816000905550600101610170565b5090565b90565b6107028061019e6000396000f3fe608060405234801561001057600080fd5b50600436106100575760003560e01c80630fe578ee1461005c578063a3a0421914610094578063c12bbaad146100ea578063d9e1ff8814610140578063e8efa18814610182575b600080fd5b6100926004803603604081101561007257600080fd5b8101908080359060200190929190803590602001909291905050506101c4565b005b6100e8600480360360a08110156100aa57600080fd5b8101908080359060200190929190803590602001909291908035906020019092919080359060200190929190803590602001909291905050506101fe565b005b61013e600480360360a081101561010057600080fd5b810190808035906020019092919080359060200190929190803590602001909291908035906020019092919080359060200190929190505050610385565b005b61016c6004803603602081101561015657600080fd5b810190808035906020019092919050505061066c565b6040518082815260200191505060405180910390f35b6101ae6004803603602081101561019857600080fd5b8101908080359060200190929190505050610684565b6040518082815260200191505060405180910390f35b8160076000848152602001908152602001600020600101819055508060076000848152602001908152602001600020600001819055505050565b600180600087815260200190815260200160002060008681526020019081526020016000205414806102545750600160026000878152602001908152602001600020600086815260200190815260200160002054145b61025d57600080fd5b61026561069c565b604051806080016040528083815260200160008152602001600080191681526020016000801916815250905060008086815260200190815260200160002081908060018154018082558091505090600182039060005260206000209060040201600090919290919091506000820151816000015560208201518160010155604082015181600201556060820151816003015550505060006005600084815260200190815260200160002060006101000a81548160ff0219169083151502179055507f322cbf5724c02f11f9825c070df5d8ef220a6019fbdf606f5131696c57f0d25c8686868686604051808681526020018581526020018481526020018381526020018281526020019550505050505060405180910390a1505050505050565b80600015156005600083815260200190815260200160002060009054906101000a900460ff16151514610420576040517f08c379a00000000000000000000000000000000000000000000000000000000081526004018080602001828103825260138152602001807f526f6f6d204e6f7420417661696c61626c652e0000000000000000000000000081525060200191505060405180910390fd5b7f8c2d1ffd05da0c5f9fab35c576082c42bd75e8f4fa12fa08d1c725cad5a8b403826005600085815260200190815260200160002060009054906101000a900460ff1660405180838152602001821515151581526020019250505060405180910390a1600180600088815260200190815260200160002060008781526020019081526020016000205414806104d95750600160026000888152602001908152602001600020600087815260200190815260200160002054145b61054b576040517f08c379a00000000000000000000000000000000000000000000000000000000081526004018080602001828103825260138152602001807f524f4f4d20444f4553204e4f542045584953540000000000000000000000000081525060200191505060405180910390fd5b61055361069c565b60405180608001604052808481526020016001815260200186815260200185815250905060016005600085815260200190815260200160002060006101000a81548160ff0219169083151502179055506000808781526020019081526020016000208190806001815401808255809150509060018203906000526020600020906004020160009091929091909150600082015181600001556020820151816001015560408201518160020155606082015181600301555050507f1ae79010d508d013e6e4aa048591055aaa1a3bd549ebea567187f6ebb655f22c8787878787604051808681526020018581526020018481526020018381526020018281526020019550505050505060405180910390a150505050505050565b600881600a811061067957fe5b016000915090505481565b601281600a811061069157fe5b016000915090505481565b604051806080016040528060008019168152602001600081526020016000801916815260200160008019168152509056fea265627a7a723158205810813b112269a31552cfa149bdf6ee07a0664a0e14abc10ea703ede2eef33e64736f6c63430005100032",
  "source": "pragma solidity >=0.4.24;\r\n\r\n\r\ncontract Booking {\r\n\r\n    struct Slot {\r\n        bytes32 idSlot;\r\n        uint256 status; // if 0 means vacant if 1 means occupied\r\n        bytes32 start;\r\n        bytes32 end;\r\n    }\r\n\r\n    struct Appointment{\r\n        bytes32 idSlot;\r\n        bytes32 idCompany;\r\n    }\r\n\r\n\r\n    mapping(bytes32 => Slot[])  rooms;\r\n    mapping(bytes32 => mapping(bytes32 => uint)) colaExists;\r\n    mapping(bytes32 => mapping(bytes32 => uint)) pepsiExists;\r\n    mapping(bytes32 => Slot[])  ColaRooms; // bytes32 is the ID of the room\r\n    mapping(bytes32 => Slot[]) PepsiRooms;\r\n    mapping(bytes32 => bool) slotAvailibilities;\r\n    mapping(bytes32 => bool ) isAvailable;\r\n    mapping(bytes32 => Appointment ) availabilities;\r\n\r\n\r\n    bytes32 [10] public COLA;\r\n    bytes32 [10] public PEPSI;\r\n\r\n    bytes32 constant company_cola = \"COLA\";\r\n   \r\n\r\n    event Book(bytes32 idCompany, bytes32 resourceId, bytes32 start, bytes32 end, bytes32 idSlot);\r\n    event Cancel(bytes32 idCompany, bytes32 resourceId, bytes32 start, bytes32 end, bytes32 idSlot);\r\n    event SLOT(bytes32 id, bool value);\r\n\r\n     uint256 x;\r\n     event Done(uint256 value);\r\n\r\n    modifier onlyWhenAvailable(bytes32 id)\r\n    {\r\n        require(\r\n            slotAvailibilities[id] == false,\r\n            \"Room Not Available.\"\r\n        );\r\n        _;\r\n    }\r\n\r\n    modifier onlyWhenExists(bytes32 id)\r\n        {\r\n            require(\r\n                availabilities[id].idSlot == 0,\r\n                \"ALREADY EXIST\"\r\n            );\r\n            _;\r\n        }\r\n\r\n    modifier onlyIfExists(bytes32 id)\r\n        {\r\n            require(\r\n                isAvailable[id] == false,\r\n                \"ALREADY EXIST\"\r\n            );\r\n            _;\r\n        }\r\n\r\n    constructor( bytes32 [10] memory _cola, bytes32 _idCola,  bytes32 [10] memory _pepsi, bytes32 _idPepsi) public{\r\n        COLA = _cola;\r\n        PEPSI = _pepsi;\r\n        setUpColaPepsiRooms(_idCola, _idPepsi);\r\n\r\n    }\r\n\r\n    function setUpColaPepsiRooms(bytes32 _idCola, bytes32 _idPepsi) private {\r\n        for(uint i=0; i<COLA.length; i++){\r\n            colaExists[_idCola][COLA[i]] = 1;\r\n            pepsiExists[_idPepsi][PEPSI[i]] = 1;\r\n        }\r\n\r\n    }\r\n\r\n\r\n\r\n    function book(bytes32  idCompany, bytes32  resourceId, bytes32  start, bytes32  end, bytes32 idSlot) external onlyWhenAvailable(idSlot)  {\r\n        //make a require to check if roomID exists\r\n        emit SLOT(idSlot, slotAvailibilities[idSlot]);\r\n        //TODO return this onlyWhenAvailable(idSlot)\r\n\r\n        require(colaExists[idCompany][resourceId] ==1 || pepsiExists[idCompany][resourceId] ==1, \"ROOM DOES NOT EXIST\");\r\n        Slot memory slot = Slot(idSlot, 1, start, end);\r\n        slotAvailibilities[idSlot] = true;\r\n        rooms[resourceId].push(slot);\r\n        emit Book(idCompany, resourceId, start, end, idSlot);\r\n\r\n\r\n    }\r\n\r\n    function cancel(bytes32  idCompany, bytes32  resourceId, bytes32  start, bytes32  end, bytes32  idSlot) external{\r\n        require(colaExists[idCompany][resourceId] ==1 || pepsiExists[idCompany][resourceId] ==1);\r\n        Slot memory slot = Slot(idSlot, 0, \"\", \"\");\r\n        rooms[resourceId].push(slot);\r\n        slotAvailibilities[idSlot] = false;\r\n        emit Cancel(idCompany, resourceId, start, end, idSlot);\r\n     }\r\n\r\n\r\n      function test (bytes32 idCompany, bytes32 idSlot) public   {\r\n       // emit SLOT(id, isAvailable[id]);\r\n      //  isAvailable[id] = true;\r\n      //   require(availabilities[idCompany].idSlot == 0,\"ALREADY EXIST !!!\");\r\n         availabilities[idCompany].idCompany = idCompany;\r\n         availabilities[idCompany].idSlot = idSlot;\r\n\r\n      }\r\n\r\n\r\n}",
  "sourcePath": "/home/ubuntu/sahar-booking/app/contracts/Booking.sol",
  "compiler": {
    "name": "solc",
    "version": "0.5.16+commit.9c3226ce.Emscripten.clang"
  },
  "schemaVersion": "3.3.3",
  "updatedAt": "2021-04-12T17:03:40.033Z",
  "networkType": "ethereum",
  "devdoc": {
    "methods": {}
  },
  "userdoc": {
    "methods": {}
  }
}