{
  "contractName": "Booking",
  "abi": [
    {
      "inputs": [
        {
          "internalType": "bytes32[10]",
          "name": "_cola",
          "type": "bytes32[10]"
        },
        {
          "internalType": "bytes32",
          "name": "_idCola",
          "type": "bytes32"
        },
        {
          "internalType": "bytes32[10]",
          "name": "_pepsi",
          "type": "bytes32[10]"
        },
        {
          "internalType": "bytes32",
          "name": "_idPepsi",
          "type": "bytes32"
        }
      ],
      "payable": false,
      "stateMutability": "nonpayable",
      "type": "constructor"
    },
    {
      "anonymous": false,
      "inputs": [
        {
          "indexed": false,
          "internalType": "bytes32",
          "name": "idCompany",
          "type": "bytes32"
        },
        {
          "indexed": false,
          "internalType": "bytes32",
          "name": "resourceId",
          "type": "bytes32"
        },
        {
          "indexed": false,
          "internalType": "bytes32",
          "name": "start",
          "type": "bytes32"
        },
        {
          "indexed": false,
          "internalType": "bytes32",
          "name": "end",
          "type": "bytes32"
        },
        {
          "indexed": false,
          "internalType": "bytes32",
          "name": "idSlot",
          "type": "bytes32"
        }
      ],
      "name": "Book",
      "type": "event"
    },
    {
      "anonymous": false,
      "inputs": [
        {
          "indexed": false,
          "internalType": "bytes32",
          "name": "idCompany",
          "type": "bytes32"
        },
        {
          "indexed": false,
          "internalType": "bytes32",
          "name": "resourceId",
          "type": "bytes32"
        },
        {
          "indexed": false,
          "internalType": "bytes32",
          "name": "start",
          "type": "bytes32"
        },
        {
          "indexed": false,
          "internalType": "bytes32",
          "name": "end",
          "type": "bytes32"
        },
        {
          "indexed": false,
          "internalType": "bytes32",
          "name": "idSlot",
          "type": "bytes32"
        }
      ],
      "name": "Cancel",
      "type": "event"
    },
    {
      "anonymous": false,
      "inputs": [
        {
          "indexed": false,
          "internalType": "uint256",
          "name": "value",
          "type": "uint256"
        }
      ],
      "name": "Done",
      "type": "event"
    },
    {
      "anonymous": false,
      "inputs": [
        {
          "indexed": false,
          "internalType": "bytes32",
          "name": "id",
          "type": "bytes32"
        },
        {
          "indexed": false,
          "internalType": "bool",
          "name": "value",
          "type": "bool"
        }
      ],
      "name": "SLOT",
      "type": "event"
    },
    {
      "constant": true,
      "inputs": [
        {
          "internalType": "uint256",
          "name": "",
          "type": "uint256"
        }
      ],
      "name": "COLA",
      "outputs": [
        {
          "internalType": "bytes32",
          "name": "",
          "type": "bytes32"
        }
      ],
      "payable": false,
      "stateMutability": "view",
      "type": "function"
    },
    {
      "constant": true,
      "inputs": [
        {
          "internalType": "uint256",
          "name": "",
          "type": "uint256"
        }
      ],
      "name": "PEPSI",
      "outputs": [
        {
          "internalType": "bytes32",
          "name": "",
          "type": "bytes32"
        }
      ],
      "payable": false,
      "stateMutability": "view",
      "type": "function"
    },
    {
      "constant": false,
      "inputs": [
        {
          "internalType": "bytes32",
          "name": "idCompany",
          "type": "bytes32"
        },
        {
          "internalType": "bytes32",
          "name": "resourceId",
          "type": "bytes32"
        },
        {
          "internalType": "bytes32",
          "name": "start",
          "type": "bytes32"
        },
        {
          "internalType": "bytes32",
          "name": "end",
          "type": "bytes32"
        },
        {
          "internalType": "bytes32",
          "name": "idSlot",
          "type": "bytes32"
        }
      ],
      "name": "book",
      "outputs": [],
      "payable": false,
      "stateMutability": "nonpayable",
      "type": "function"
    },
    {
      "constant": false,
      "inputs": [
        {
          "internalType": "bytes32",
          "name": "idCompany",
          "type": "bytes32"
        },
        {
          "internalType": "bytes32",
          "name": "resourceId",
          "type": "bytes32"
        },
        {
          "internalType": "bytes32",
          "name": "start",
          "type": "bytes32"
        },
        {
          "internalType": "bytes32",
          "name": "end",
          "type": "bytes32"
        },
        {
          "internalType": "bytes32",
          "name": "idSlot",
          "type": "bytes32"
        }
      ],
      "name": "cancel",
      "outputs": [],
      "payable": false,
      "stateMutability": "nonpayable",
      "type": "function"
    }
  ],
  "bytecode": "0x608060405234801561001057600080fd5b506040516107c03803806107c083398181016040526102c081101561003457600080fd5b810190809190826101400180519060200190929190919082610140018051906020019092919050505083600590600a61006e92919061012a565b5081600f90600a61008092919061012a565b50610091838261009a60201b60201c565b5050505061018f565b60008090505b600a8110156101255760018060008581526020019081526020016000206000600584600a81106100cc57fe5b01548152602001908152602001600020819055506001600260008481526020019081526020016000206000600f84600a811061010457fe5b015481526020019081526020016000208190555080806001019150506100a0565b505050565b82600a8101928215610159579160200282015b8281111561015857825182559160200191906001019061013d565b5b509050610166919061016a565b5090565b61018c91905b80821115610188576000816000905550600101610170565b5090565b90565b6106228061019e6000396000f3fe608060405234801561001057600080fd5b506004361061004c5760003560e01c8063a3a0421914610051578063c12bbaad146100a7578063d9e1ff88146100fd578063e8efa1881461013f575b600080fd5b6100a5600480360360a081101561006757600080fd5b810190808035906020019092919080359060200190929190803590602001909291908035906020019092919080359060200190929190505050610181565b005b6100fb600480360360a08110156100bd57600080fd5b810190808035906020019092919080359060200190929190803590602001909291908035906020019092919080359060200190929190505050610308565b005b6101296004803603602081101561011357600080fd5b810190808035906020019092919050505061058c565b6040518082815260200191505060405180910390f35b61016b6004803603602081101561015557600080fd5b81019080803590602001909291905050506105a4565b6040518082815260200191505060405180910390f35b600180600087815260200190815260200160002060008681526020019081526020016000205414806101d75750600160026000878152602001908152602001600020600086815260200190815260200160002054145b6101e057600080fd5b6101e86105bc565b604051806080016040528083815260200160008152602001600080191681526020016000801916815250905060008086815260200190815260200160002081908060018154018082558091505090600182039060005260206000209060040201600090919290919091506000820151816000015560208201518160010155604082015181600201556060820151816003015550505060006003600084815260200190815260200160002060006101000a81548160ff0219169083151502179055507f322cbf5724c02f11f9825c070df5d8ef220a6019fbdf606f5131696c57f0d25c8686868686604051808681526020018581526020018481526020018381526020018281526020019550505050505060405180910390a1505050505050565b80600015156003600083815260200190815260200160002060009054906101000a900460ff161515146103a3576040517f08c379a00000000000000000000000000000000000000000000000000000000081526004018080602001828103825260138152602001807f526f6f6d204e6f7420417661696c61626c652e0000000000000000000000000081525060200191505060405180910390fd5b600180600088815260200190815260200160002060008781526020019081526020016000205414806103f95750600160026000888152602001908152602001600020600087815260200190815260200160002054145b61046b576040517f08c379a00000000000000000000000000000000000000000000000000000000081526004018080602001828103825260138152602001807f524f4f4d20444f4553204e4f542045584953540000000000000000000000000081525060200191505060405180910390fd5b6104736105bc565b60405180608001604052808481526020016001815260200186815260200185815250905060016003600085815260200190815260200160002060006101000a81548160ff0219169083151502179055506000808781526020019081526020016000208190806001815401808255809150509060018203906000526020600020906004020160009091929091909150600082015181600001556020820151816001015560408201518160020155606082015181600301555050507f1ae79010d508d013e6e4aa048591055aaa1a3bd549ebea567187f6ebb655f22c8787878787604051808681526020018581526020018481526020018381526020018281526020019550505050505060405180910390a150505050505050565b600581600a811061059957fe5b016000915090505481565b600f81600a81106105b157fe5b016000915090505481565b604051806080016040528060008019168152602001600081526020016000801916815260200160008019168152509056fea265627a7a7231582055c87f2dbf6206edc53cd1f0c2cf0315bca00e295c24d42e554ef01068d8758864736f6c63430005100032",
  "source": "pragma solidity >=0.4.24;\r\n\r\n\r\ncontract Booking {\r\n\r\n    struct Slot {\r\n        bytes32 idSlot;\r\n        uint256 status; // if 0 means vacant if 1 means occupied\r\n        bytes32 start;\r\n        bytes32 end;\r\n    }\r\n\r\n    struct Appointment{\r\n        bytes32 idSlot;\r\n        bytes32 idCompany;\r\n    }\r\n\r\n\r\n    mapping(bytes32 => Slot[])  rooms;\r\n    mapping(bytes32 => mapping(bytes32 => uint)) colaExists;\r\n    mapping(bytes32 => mapping(bytes32 => uint)) pepsiExists;\r\n  //  mapping(bytes32 => Slot[])  ColaRooms; // bytes32 is the ID of the room\r\n  //  mapping(bytes32 => Slot[]) PepsiRooms;\r\n    mapping(bytes32 => bool) slotAvailibilities;\r\n    mapping(bytes32 => Appointment ) availabilities;\r\n\r\n\r\n    bytes32 [10] public COLA;\r\n    bytes32 [10] public PEPSI;\r\n\r\n    bytes32 constant company_cola = \"COLA\";\r\n   \r\n\r\n    event Book(bytes32 idCompany, bytes32 resourceId, bytes32 start, bytes32 end, bytes32 idSlot);\r\n    event Cancel(bytes32 idCompany, bytes32 resourceId, bytes32 start, bytes32 end, bytes32 idSlot);\r\n    event SLOT(bytes32 id, bool value);\r\n\r\n     uint256 x;\r\n     event Done(uint256 value);\r\n\r\n    modifier onlyWhenAvailable(bytes32 id)\r\n    {\r\n        require(\r\n            slotAvailibilities[id] == false,\r\n            \"Room Not Available.\"\r\n        );\r\n        _;\r\n    }\r\n\r\n\r\n\r\n    constructor( bytes32 [10] memory _cola, bytes32 _idCola,  bytes32 [10] memory _pepsi, bytes32 _idPepsi) public{\r\n        COLA = _cola;\r\n        PEPSI = _pepsi;\r\n        setUpColaPepsiRooms(_idCola, _idPepsi);\r\n\r\n    }\r\n\r\n    function setUpColaPepsiRooms(bytes32 _idCola, bytes32 _idPepsi) private {\r\n        for(uint i=0; i<COLA.length; i++){\r\n            colaExists[_idCola][COLA[i]] = 1;\r\n            pepsiExists[_idPepsi][PEPSI[i]] = 1;\r\n        }\r\n\r\n    }\r\n\r\n\r\n\r\n    function book(bytes32  idCompany, bytes32  resourceId, bytes32  start, bytes32  end, bytes32 idSlot) external onlyWhenAvailable(idSlot)  {\r\n        require(colaExists[idCompany][resourceId] ==1 || pepsiExists[idCompany][resourceId] ==1, \"ROOM DOES NOT EXIST\");\r\n        Slot memory slot = Slot(idSlot, 1, start, end);\r\n        slotAvailibilities[idSlot] = true;\r\n        rooms[resourceId].push(slot);\r\n        emit Book(idCompany, resourceId, start, end, idSlot);\r\n\r\n\r\n    }\r\n\r\n    function cancel(bytes32  idCompany, bytes32  resourceId, bytes32  start, bytes32  end, bytes32  idSlot) external{\r\n        require(colaExists[idCompany][resourceId] ==1 || pepsiExists[idCompany][resourceId] ==1);\r\n        Slot memory slot = Slot(idSlot, 0, \"\", \"\");\r\n        rooms[resourceId].push(slot);\r\n        slotAvailibilities[idSlot] = false;\r\n        emit Cancel(idCompany, resourceId, start, end, idSlot);\r\n     }\r\n\r\n}",
  "sourcePath": "/home/ubuntu/sahar-booking/app/contracts/Booking.sol",
  "compiler": {
    "name": "solc",
    "version": "0.5.16+commit.9c3226ce.Emscripten.clang"
  },
  "schemaVersion": "3.3.3",
  "updatedAt": "2021-04-18T10:47:30.527Z",
  "networkType": "ethereum",
  "devdoc": {
    "methods": {}
  },
  "userdoc": {
    "methods": {}
  }
}